:020000040800F2
:1000000058C1002031030008E76000086F51000864
:10001000A560000849130008519000080000000086
:100020000000000000000000000000007102000855
:10003000B51F000800000000CD020008E17C0008A8
:100040004B0300084B0300084B0300084B03000858
:100050004B0300084B030008D51F00084B030008A2
:100060004B030008DB1F0008E11F00084B030008DA
:100070004B0300084B0300084B0300084B03000828
:100080004B0300084B0300084B03000855140008FD
:100090004D1300084B0300084B030008E71F00083E
:1000A0004B0300084B0300084B0300084B030008F8
:1000B000B17D00084B0300084B0300084B03000808
:1000C0004B0300084B0300084B0300084B030008D8
:1000D0004B030008E58B0008F18B0008FD8B00083E
:1000E0004B0300084B0300084B0300084B030008B8
:1000F0004B0300084B0300084B0300084B030008A8
:100100004B0300084B030008BD7D00084B030008AB
:100110004B0300084B0300084B0300084B03000887
:100120004B0300084B030008411C00084B03000868
:100130004B0300084B0300084B0300080D15000893
:10014000611400084B0300084B0300084B03000830
:100150004B030008051F00084B030008098C00082A
:100160004B0300084B0300084B0300084B03000837
:100170004B0300084B0300084B030008000000007D
:100180004B0300084B03000800F002F800F061F890
:100190000AA090E8000C82448344AAF10107DA45E2
:1001A00001D100F056F8AFF2090EBAE80F0013F0D3
:1001B000010F18BFFB1A43F001031847C8F30000F2
:1001C000E8F300000A444FF0000C10F8013B13F074
:1001D000070408BF10F8014B1D1108BF10F8015BA0
:1001E000641E05D010F8016B641E01F8016BF9D193
:1001F00013F0080F1EBF10F8014BAD1C0C1B09D1EA
:100200006D1E58BF01F801CBFAD505E014F8016B5B
:1002100001F8016B6D1EF9D59142D6D370470000ED
:100220000023002400250026103A28BF78C1FBD8FF
:10023000520728BF30C148BF0B607047642900F0E7
:100240004B81002070471FB50EF039F91FBD10B566
:1002500010BD00F064FB1146FFF7F5FF0BF0B6FE92
:1002600000F082FB03B4FFF7F2FF03BC00F086FB53
:100270002C4B19680868B0E8F04F80F30988BFF389
:100280006F8F4FF0000080F311887047000000006E
:1002900008480068006880F308884FF0000080F389
:1002A000148862B661B6BFF34F8FBFF36F8F00DF64
:1002B00000BF00BF08ED00E0DFF80C00016841F46A
:1002C00070010160704700BF88ED00E0EFF3098026
:1002D000BFF36F8F134B1A681EF0100F08BF20ED8D
:1002E000108A20E9F04F106009B44FF0500080F3FD
:1002F0001188BFF34F8FBFF36F8F0CF019FF4FF0D2
:10030000000080F3118809BC19680868B0E8F04F54
:100310001EF0100F08BFB0EC108A80F30988BFF3FD
:100320006F8F70474C000020EFF30580704700008E
:100330000948804709480047FEE7FEE7FEE7FEE779
:10034000FEE7FEE7FEE7FEE7FEE7FEE704480549B5
:10035000054A064B70470000A17D0008890100088E
:100360005881002058C1002058A1002058A1002029
:1003700053EA020C00F069802DE9F04B4FF00006C3
:10038000002B1FBFB3FA83F503FA05F424FA05F630
:100390005E4012BF1643B2FA82F502FA05F4C5F1C7
:1003A00020051EBF22FA05FC44EA0C04203556EA5B
:1003B000044C4FEA144418BF641C4FF000084FF07F
:1003C0000009904271EB030C39D3002919BFB1FA2F
:1003D00081F701FA07F6B0FA80F700FA07F6C7F1DD
:1003E00020071EBF20FA07FC46EA0C062037B6FBA2
:1003F000F4FCA7EB0507103F07F01F0BCBF120061D
:100400000CFA0BFB2CFA06F644BFB3460026202F4D
:10041000A4BF5E464FF0000B5BEA060C08BF4FF02E
:10042000010B19EB0B09ABFB027C48EB0608C01B68
:1004300006FB02CC0BFB03CC71EB0C01C1E70B46B6
:10044000024641464846BDE8F08B13B54FF0000028
:100450004FF00001AFF30080BDE81C407047000082
:100460000FB41CB5074B06AA7B446946009005985B
:1004700000F033FA0020694600F042FA1CBC5DF837
:1004800014FB00009504000070B5044685690068FF
:10049000C10601D5302600E02026C00707D070BD78
:1004A000D4E9012130469047206A401C20626D1E2D
:1004B000F6D570BD70B5044685690078C00707D1D0
:1004C00070BDD4E9012120209047206A401C2062A1
:1004D0006D1EF6D570BD00002DE9F04106460024E2
:1004E00010687529314616A510D0AFF3008000289A
:1004F00002DA404213A507E031688A0701D512A548
:1005000002E0490704D511A5012401E0AFF3008002
:1005100000210A2206F1240709E0B0FBF2FCB0FB3F
:10052000F2F302FB1C00303078541846491C0028B6
:10053000F3D123462A463046BDE8F04100F06FB9BA
:10054000000000002D0000002B0000002000000033
:100550002DE9F05F894604464FF0000ADFF824B128
:10056000FB44C0F820A02046E168884700287DD0E1
:10057000252806D0D4E901219047206A401C20623A
:10058000F1E700255F462046E168884720280646B7
:1005900007DB312E05D2B81910F8200C08B105433D
:1005A000F1E7A80701D525F00405C4F81CA0002731
:1005B000C4F818A02A2E09D030460AF05BFD38B3E3
:1005C00004EB8708303EC8F8186019E059F8041B9E
:1005D000204604EB87029161E1688847012F0646B7
:1005E00018D1E069002820DA25F020051DE0D8F8B0
:1005F000180000EB800006EB40003038C8F8180007
:100600002046E168884706460AF034FD0028EED10E
:10061000012F0AD02E2E08D12046E16888477F1C82
:100620000646022F45F02005C4DBA069002803DA46
:10063000404245F00105A061E80701D025F0100512
:10064000A6B1A6F14100192802D8203645F400656C
:100650004A463146204625604D46FFF7EFFD60B122
:10066000012807D0ED1D25F0070000E007E000F1AC
:10067000080978E705F1040975E730467AE7206A4A
:10068000BDE8F09F64E5000010B5431C02E010F8DF
:10069000011B71B18107FAD14FF0013202C88C1AE7
:1006A0008C4314EAC211F9D0C01A0A0603D0C01E46
:1006B00010BDC01A10BD0A0401D0801E10BD090271
:1006C000FCD0401E10BD032A40F2308010F0030C15
:1006D00000F0158011F8013BBCF1020F624498BF95
:1006E00011F801CB00F8013B38BF11F8013BA2F132
:1006F000040298BF00F801CB38BF00F8013B11F0AD
:10070000030300F02580083AC0F0088051F8043B4C
:10071000083A51F804CBA0E80810F5E7121D5CBFB9
:1007200051F8043B40F8043BAFF30080D20724BFEC
:1007300011F8013B11F801CB48BF11F8012B24BF80
:1007400000F8013B00F801CB48BF00F8012B7047CF
:1007500010B5203AC0F00B80B1E81850203AA0E85C
:100760001850B1E81850A0E81850BFF4F5AF5FEA90
:10077000027C24BFB1E81850A0E8185044BF18C943
:1007800018C0BDE810405FEA827C24BF51F8043BEA
:1007900040F8043B08BF7047D20728BF31F8023B3E
:1007A00048BF11F8012B28BF20F8023B48BF00F8D2
:1007B000012B70474FF0000200B513469446964651
:1007C000203922BFA0E80C50A0E80C50B1F1200164
:1007D000BFF4F7AF090728BFA0E80C5048BF0CC012
:1007E0005DF804EB890028BF40F8042B08BF704770
:1007F00048BF20F8022B11F0804F18BF00F8012BE2
:10080000704770477047704710B500F083F8006874
:1008100010BD10B5044600F07DF8046010BD2DE950
:10082000F0470D4699469246044600F124080168B7
:10083000880604D5E06921F01001216000E0012064
:10084000A84201DD471B00E00027A1697A1902EBED
:100850000900081AA0612078C00602D42046FFF7DC
:1008600013FE002608E0D4E901211AF8060090479B
:10087000206A401C761C20624E45F4DB2078C006BE
:100880000AD52046FFF700FE06E0D4E9012130201A
:100890009047206A401C2062381EA7F10107F4DC53
:1008A00007E0D4E9012118F805009047206A401CB0
:1008B0002062281EA5F10105F3DC2046FFF7FAFDB2
:1008C0002078000602D50220BDE8F0870120FBE772
:1008D00001694A1C02610878704700B58FB0CDE904
:1008E00001310021059105497944CDE903101146F4
:1008F0006846FFF72DFE0FB000BD0000E5FFFFFFCB
:100900000A6802F8010B0A6070470000004870474F
:10091000F880002000487047F88000207047754636
:10092000FFF7F4FFAE4605006946534620F0070086
:10093000854618B020B5FFF709FDBDE820404FF00F
:1009400000064FF000074FF000084FF0000B21F0B9
:100950000701AC46ACE8C009ACE8C009ACE8C00986
:10096000ACE8C0098D46704710B50446AFF300806F
:100970002046BDE81040FFF775BC00000149182073
:10098000ABBEFEE726000200F0B581B04FF6831142
:10099000C3F622610DF044FD4FF07A510DF09DFC3D
:1009A00004460DF0F1FC05462046002100270DF01D
:1009B000C0FC002818BF013D28460DF0F3FC01469D
:1009C00020460DF086FD4FF088410DF029FD0546CB
:1009D0000DF0E1FC044628464FF044410DF07DFC4B
:1009E0000646B7EB542F0CBF2E46002420460DF0D0
:1009F000E0FC014630460DF06CFD05464FF07E50A0
:100A000029460DF066FD4EF68057C0F6000757F8F0
:100A100024100DF005FD064607EB840041682846CA
:100A20000DF0FEFC014630460DF057FC01B0F0BD64
:100A3000F0B581B04FF68311C3F622610DF0F0FCE2
:100A400004460DF0A1FC05462046002100270DF0CC
:100A500070FC002818BF013D28460DF0A3FC01469C
:100A600020460DF036FD4FF088410DF0D9FC0546CB
:100A70000DF091FC044628464FF044410DF02DFC4A
:100A80000646B7EB542F0CBF2E46002420460DF02F
:100A900090FC014630460DF01CFD05464FF07E509F
:100AA00029460DF016FD4EF68057C0F6000757F8A0
:100AB00024100DF0B5FC064607EB8400416828467B
:100AC0000DF0AEFC014630460DF007FC01B0F0BD64
:100AD00008F06ABD08F0FEBD10B510EE100A0DF06A
:100AE000D1FB41EC100B08F01FFF51EC100B0CF088
:100AF000F7FD00EE100A10BDF0EE400AF5EEC00A58
:100B0000F1EE10FA02DDB0EE600A7047B1EE600A55
:100B1000FBE70000002803D09FED020A80ED000AE9
:100B20007047000000000000002803D0B3EE060A62
:100B300080ED000A7047000070B52DED0C8B84B07D
:100B400006460C4615469FED990AF0EE408A9FED49
:100B5000970AB0EE409A9FED950AF0EE40BA9FEDED
:100B6000930AF0EE409A9FED910AB0EE40AA0EB1C2
:100B700004B11DB904B0BDEC0C8B70BD8C48FFF7FF
:100B8000C9FF8C48FFF7D0FF8A48D0ED000A9FEDDF
:100B90008A1A60EE810AB0EE600A00F025F9F0EEE4
:100BA000408A28EEA80AF0EE408A8248D0ED000A7A
:100BB000B0EE001A60EE810A9FED7F1A60EE810AA6
:100BC000B0EE600A00F010F9B0EE409A29EE090A82
:100BD000B0EE409ADFED790AB7EE000A00EEA80AFF
:100BE000DFED770A00EEC90ADFED760A20EE200A73
:100BF000754880ED000A6E4890ED000ADFED730A3B
:100C000080EE201AB7EE000A31EE000A20EE000A4C
:100C10006D48D0ED000A80EE801A6D4880ED001A14
:100C200094ED000AB5EEC00AF1EE10FA0DD194ED84
:100C3000010AB5EEC00AF1EE10FA06D194ED020AEF
:100C4000B5EEC00AF1EE10FA46D09FED580AB0EEAC
:100C5000408A0020019002900390D4ED000A60EEDB
:100C6000A00A94ED011AD4ED011A41EE210A94ED87
:100C7000021AD4ED021A41EE210AB0EE600A00F029
:100C8000A9F8B0EE408A94ED000A20EE080A8DED36
:100C9000010A94ED010A20EE080A8DED020A94ED96
:100CA000020A20EE080A8DED030ADDED010AF1EEDD
:100CB000600AB0EE600AFFF70BFFF0EE409A9DED80
:100CC000031AF0EE410A9DED021AB0EE410AFFF759
:100CD00001FFB0EE40AA07E09FED340AF0EE409A23
:100CE0009FED320AB0EE40AA95ED000AB5EEC00ABB
:100CF000F1EE10FA0DD195ED010AB5EEC00AF1EE54
:100D000010FA06D195ED020AB5EEC00AF1EE10FA1E
:100D10003CD0B0EE690A00F067F8B0EE408AB0EE61
:100D2000690AFFF7D9FEB0EE40DAB0EE4A0A00F0E9
:100D30005BF8F0EE40AAB0EE4A0AFFF7CDFEB0EE47
:100D400040BA28EE2A0AD5ED010A20EE200AD5ED98
:100D5000000A0DEE200A68EE0B0A95ED021A00EE6D
:100D6000810AB0EE40CA95ED010A20EE0B0AD5EDDE
:100D7000020A0AEEE00AF0EE40CAF0EE6C0AB0EEAB
:100D80004C0AFFF7A7FEF0EE40BA03E09FED070A1A
:100D9000F0EE40BAB0EE4A1AF0EE690AB0EE6B0A15
:100DA00030460AF01DFB00BFE4E600000000000032
:100DB000D0010020D401002035FA8E3CC1BFAD3BEC
:100DC0009DF8C5362F7C1C41D8010020506CC24ACA
:100DD000DC01002010B509F0D4FCB7EE001AC1EE1A
:100DE000000AB0EE600A10BD10B510EE100A0DF04A
:100DF00049FA41EC100B09F023FC51EC100B0CF0FC
:100E00006FFC00EE100A10BD2DE9F0412DED028BB4
:100E10009AB00546B0EE408A0E4617469846002026
:100E20001790189019901490159016904DB146B1E6
:100E30003FB1B8F1000F04D0B5EEC08AF1EE10FA60
:100E400005D100201AB0BDEC028BBDE8F08196ED13
:100E5000000A8DED170A96ED010A8DED180A96ED40
:100E6000020A8DED190A97ED000A8DED140A97ED2F
:100E7000010A8DED150A97ED020A8DED160A17AAE3
:100E800014A928460AF0FEF8402104A8FFF792FCB6
:100E900000200090019002900390002417A904A85C
:100EA0000BF0BEFE00BF30E004A800EB041090ED94
:100EB000000AD5ED000A20EE200A04A800EB041079
:100EC000D0ED010A95ED011A00EE810A04A800EBAD
:100ED0000410D0ED020A95ED021A00EE810A04A872
:100EE00000EB0410D0ED030A95ED031A00EE810A21
:100EF00020EE080AF0EE000A80EE201A684600EBA9
:100F0000840080ED001A601CC4B2042CCCDB0024E9
:100F100010E005EB840090ED000A684600EB8400C9
:100F2000D0ED000A30EE200A05EB840080ED000AC7
:100F3000601CC4B2042CECDB28460BF0A5FD01209C
:100F400080E7000030B50C4605000CD0022C0AD911
:100F50000548A11E0288284601F070F8291901F8F9
:100F6000020D000A487030BDB400002030B50C46B8
:100F700005000AD0022C08D9601E81B2FF22284643
:100F800001F072F8291901F8010C30BD012210217D
:100F9000014802F010B900000000024000221021B8
:100FA000014802F008B9000000000240704700004C
:100FB00001221146014802F0FEB800000004024080
:100FC00000220121014802F0F6B8000000040240AE
:100FD00030B5437804781B021BB2234300EE103A6D
:100FE000194CB8EEC00AD4ED000A20EE200A81EDBB
:100FF000000AC37885781B021BB22B4300EE103A1F
:10100000D4ED000AB8EEC00A20EE200A81ED010AF4
:10101000437904791B021BB2234300EE103AB8EE69
:10102000C00A20EE200ADFED090A81ED020AD0F89D
:10103000060020F07F4000EE100AB8EE400A20EED5
:10104000200A82ED000A30BDEC00002000401C4266
:1010500070470AF0ECBF0AF041BD000010B54278BD
:101060000378120212B21A4300EE102A124BB8EEA5
:10107000C00AD3ED010A20EE200A81ED000AC278F1
:101080008478120212B2224300EE102AD3ED010A34
:10109000B8EEC00A20EE200A81ED010A42790079FB
:1010A000120212B2024300EE102AB8EEC00A20EE7D
:1010B000200A81ED020A10BDEC00002010B5FFF7F8
:1010C00075FFFFF7C5FF0AF0D5FA08B1802402E0EA
:1010D0000AF03CFA04460AF09BFC10B144F04000D0
:1010E00010BD0AF027FC204310BD00002DE9FC4193
:1010F0000746002016460D4600900190FFF74EFF70
:10110000922000F0BDF806226946122000F09AF8FD
:10111000FFF73CFF9DF801009DF80010000200B2AF
:10112000084300EE100A464CB8EEC00AD4ED000A9F
:1011300020EE200A85ED000A9DF803009DF80210BC
:10114000000200B2084300EE100AD4ED000AB8EE27
:10115000C00A20EE200A85ED010A9DF805009DF8E1
:101160000410000200B2084300EE100AB8EEC00AF4
:1011700020EE200A85ED020AFFF722FF08226946C9
:10118000002000F05FF8FFF713FF9DF800000F2824
:1011900030D19DF803009DF80210000200B2084310
:1011A00000EE100AD4ED010AB8EEC00A20EE200AC3
:1011B00087ED000A9DF805009DF80410000200B2BA
:1011C000084300EE100AD4ED010AB8EEC00A20EE82
:1011D000200A87ED010A9DF807009DF8061000021D
:1011E00000B2084300EE100AB8EEC00A20EE200A52
:1011F00087ED020AFFF7D2FEA22000F041F802229A
:101200006946222000F01EF8FFF7C0FE9DF800009E
:101210009DF80110C00040EA5110B0F5806F01DB6D
:10122000A0F5006000EE100AB4EE001AF8EEC00A55
:10123000B3EE070A00EE810A86ED000ABDE8FC81E4
:10124000EC00002070B514460D4640F0800000F020
:1012500017F806E0552000F013F8641E05F8010B9E
:10126000E4B2002CF6D170BD10B50C4640F0800001
:1012700000F006F8552000F003F8207010BD0000C3
:1012800001B582B04FF47A700090012301AA02A93F
:10129000024802F03FFF9DF804000EBDD804002074
:1012A00002784078D20042EA5010B0F5806F01DB3E
:1012B000A0F5006000EE100AB4EE001AF8EEC00AC5
:1012C000B3EE070A00EE810A81ED000A704710B5FF
:1012D0000C46FFF7D5FF2046BDE81040FFF7D0BF12
:1012E00010B504460821094803F05CFC002C0CD022
:1012F00006480168CC62C46000686108C163BDE84B
:1013000010400821014803F0E9BB10BD3806002059
:1013100070B50D460646002406E000BF06EB8401CA
:10132000074804F08FFF641CAC42F7DB054800233C
:1013300002220068BDE8704019460BF0F9BF0000BA
:101340007057002030000020FEE70000014801F047
:10135000B1B900003404002038B5006840F205231C
:10136000A0F20522984237D021DCA0F50072013AA4
:1013700005D0012A03D0022A01D0032A2BD1401E16
:10138000C4B291F90600009088882E4D40BA03B28D
:10139000488840BA02B2088840BA01B204EBC400DF
:1013A00005EB0010143004F097FE204635E0012ACA
:1013B00023D02548A2F580620B3A3CD0012A30D0D8
:1013C000022A08D10A8852BAC2804A8852BA0281D7
:1013D000898849BA418138BD91F906000090888812
:1013E00040BA03B2488840BA02B2088840BA01B293
:1013F000164804F071FE08200FE091F906000090F5
:10140000888840BA03B2488840BA02B2088840BA15
:1014100001B20F4804F060FE0420BDE8384000F03F
:10142000CBBD0A8852BA02804A8852BA4280898863
:1014300049BA818038BD0A8852BA8281498849BA3E
:10144000C18138BD845900204C58002070670020AD
:10145000C85D0020014801F02DB9000034040020CF
:10146000014801F027B900005C04002038B500688D
:10147000AA2834D0A0F50072033A17D0012A15D05B
:10148000042A3BD191F906000090888840BA03B243
:10149000488840BA02B2088840BA01B2184804F03D
:1014A0001BFE0520BDE8384000F086BDC01EC4B25A
:1014B00091F9060000908888124D40BA03B248881E
:1014C00040BA02B2088840BA01B204EBC40005EB8E
:1014D0000010943004F000FEA41DE0B2E2E70846DC
:1014E00007F00CFE0C2000F067FD01F069FE064CD1
:1014F0006168401A206001F063FE606038BD000042
:10150000585E00206C670020E4000020014801F0D4
:10151000D1B800005C04002070B5414CF0EE041A14
:101520002DED028B20899FED3F8A00EE100AB8EE68
:10153000400AC0EE080AC4ED080AB4F9000000EE43
:10154000100AB8EEC00A80EE081A84ED0A1A9FED60
:10155000361AB0EE410A10EEA00A20EE210AB5EECE
:10156000C00AF1EE10FA03DA00EEE01A21EE210AC9
:101570009FED2E1A84ED050AC0EE010A20EE880ABE
:1015800084ED0B0A03F0E2FF054603F0D9FF94ED6A
:101590000A1AF3EE0E0A94ED070A71EE200AB4EE71
:1015A000E00AF1EE10FA04DDC4ED070A94ED070A33
:1015B0000CE0282D04D2DFED1E0A30EE600A03E0B5
:1015C000F7EE000A30EE200A84ED070AA0F10A01C6
:1015D00000EE901AF8EEE00AB4EEE00AF1EE10FA2E
:1015E00004D800EE101AB8EEC00A0CE000EE900A23
:1015F000F8EE600AB4EEE00AF1EE10FA03DB00EE5A
:10160000100AB8EE400A84ED070A20EE080ABCEE84
:10161000C00A10EE100A2082BDEC028B70BD0000E3
:101620004C5800200000C8420000614300605B4449
:101630009A99D93F094890F8C00248B1012805D0CD
:10164000022807D0032807D00020704704A0704765
:1016500009A070470EA0704713A07047845900205E
:1016600043686173736973204D6F6465203D205337
:1016700070696E20200000004368617373697320F5
:101680004D6F6465203D20466F6C6C6F77000000E5
:1016900043686173736973204D6F6465203D205307
:1016A0006E6970653100000043686173736973206F
:1016B0004D6F6465203D20536E69706532000000F7
:1016C00010B503F043FF044603F068FF20B1282C57
:1016D00003D9B7EE000A10BD282400EE104A9FED92
:1016E000041AF8EE400A80EE810A20EE000A10BDCE
:1016F0000000204270B51C4D1C4C2DED028B95F85E
:10170000C012207A012902D0022802D006E0022865
:1017100004D002220121402000F02EF8B4F9040088
:10172000D5ED990A00EE100A9FED118A1148B8EE26
:10173000C00A60EE200A80EE880A06F0CAFAB4F900
:101740000600D5ED9A0A00EE100A0A48B8EEC00A63
:10175000103060EE200A80EE880ABDEC028BBDE8F6
:10176000704006F0B6BA000084590020A06A00203C
:1017700000002544F45B0020F0B5844C00262DEDDC
:101780000A8B87B094F8C01231B184F8C062B7EE0A
:10179000000A84ED950AD4E0402808D09FED7CBA79
:1017A0007C4D80280AD0B0F5807FF4D1E7E07A48FC
:1017B00004F0AEFC012084F8C002C2E0774F0220A2
:1017C00084F8C002D7F84C02B0F17F5F7EDDF2EE04
:1017D0000FBA0CF057FD41EC100B9FED71CBB0EE42
:1017E0004C1AF0EE6C1A08F003F99FED6F1B51ECE8
:1017F000100B53EC112B0CF04FFA41EC1A0B9FED30
:101800006C8BB0EE4C1AF0EE6C1AB0EE480AF0EEAB
:10181000680A08F0EDF89FED681B53EC102B51ECB3
:10182000110B0CF039FA41EC190BB0EE480AF0EE4E
:10183000680A9FED631B08F0DBF89FED631B51EC1A
:10184000100B53EC112B0CF027FA53EC192B0CF066
:101850002FFC53EC1A2B0CF02BFC41EC100B08F076
:1018600053FF9FED5B1B51EC100B53EC112B0CF055
:1018700013FA41EC190B9FED58ABB0EE480AF0EEAD
:10188000680AB0EE4C1AF0EE6C1A08F0B1F89FED51
:10189000541B51EC100B53EC112B0CF0FDF953ECD5
:1018A0001A2B0CF005FC53EC192B0CF001FC0BF07F
:1018B00017FF0CF0E7FC41EC100B08F025FF51EC92
:1018C000100B0BF00DFF00EE100A00E021E02BEEF4
:1018D000801AD7ED930A80EE810A10EE100A0CF000
:1018E000D1FC41EC100B07F0B3FC9FED3F1B51EC1A
:1018F000100B53EC112B0CF0CFF99FED3D1B53EC6B
:10190000112B0BF0DBFF0BF0EBFE00EE100AE8678B
:1019100003E09FED390A85ED1F0AD5ED210AB4EEEB
:10192000E00AF1EE10FA06D9D5ED200AB4EEE00A8D
:10193000F1EE10FA01DBB0EE600A85ED1F0A84EDCE
:1019400095BAFFF777FE142105911522CDE9030220
:101950004FF4487364200096CDE901030E4802233A
:101960003430032225A1044600F0ABFD07B0204629
:10197000BDEC0A8B0221BDE8F04000F04BBD032016
:1019800084F8C0029FED1E0AD7E7000084590020AA
:10199000CDCCCC3DEC5C0020145C00206C670020BA
:1019A00000000000000000400000000000C2A24053
:1019B0000000000000002F400000000000805840A0
:1019C000000000000000104000000000000039404E
:1019D000000000A0510F713F00000020E3E5A43F8C
:1019E000000000202653953F000000000080664064
:1019F00000000060FB21094033336B414348410044
:101A0000000010C22DE9F04786B014261520CDE95C
:101A1000040647A14FF44872CDE90221642700244F
:101A20004A48CDE900470223032247A1054600F0BA
:101A300048FD0121284600F0EDFC45A0CDE9030654
:101A4000059640F23E310094CDE901713F480223F2
:101A50003030032244A1054600F033FD0121284621
:101A600000F0D8FC01A8CD254FF4AA6840F24C4103
:101A700080E8220135480223603001223BA18246E2
:101A80000495009400F00EFD0121504600F07DFC0D
:101A9000A9004FF40C79CDE90251CDE900490223A8
:101AA000012233A15046049500F0FCFC0121504670
:101AB00000F06BFCAF2140F28C520295CDE903217E
:101AC000CDE90048022301222AA1504600F0EAFC99
:101AD0000121504600F059FC9B214FF4F072009414
:101AE000CDE90121CDE903950223012222A150462F
:101AF00000F0D8FC0121504600F047FC1120CDE950
:101B000004061EA140F28A22CDE902210F48CDE948
:101B100000477030022303221DA1044600F0D1FCCF
:101B200006B02046BDE8F047012100F073BC00007C
:101B300043686173736973204D6F6465203D20466F
:101B40006F6C6C6F7700000043484100485C0020D8
:101B500043686173736973205370656564203D2029
:101B60004661737400000000535044004F5431002C
:101B70004F5432004F5433004F54340043415020EF
:101B8000454E455247593D20313030202500000058
:101B90004341500010B5044806F059F80248BDE82A
:101BA0001040103006F053B8F45B002010B52DED56
:101BB000028B03F0C5FC4621323890FBF1F000EEB9
:101BC000100AB8EEC08A03F0E9FC08B9B7EE008A43
:101BD000DFED170A9FED170A174C08EE200ADFED1C
:101BE000170A04F51C7084ED990A84ED9A0AB0EE88
:101BF000030A08EE200AF1EE000A84ED9B0AB1EE1A
:101C0000030A08EE200AB0EE408A06F05FF8B0EE54
:101C1000480A04F5207006F059F894ED9B0A04F583
:101C20002470BDEC028BBDE8104004F08DBA0000BA
:101C30000000C8440080ED4484590020CDCC4C3FC6
:101C40002DE9F05FA748A84BA84CC06CA64DA74E45
:101C5000A54F0068A449DFF89492DFF88CA2DFF862
:101C60008CB2DFF884E2A14A483B6034183518365C
:101C7000303F09F178090AF1300A4FF4006C0BF19A
:101C8000300BAEF1180E884223D99749543926E01B
:101C9000A84233D14FF020080AE0504535D1E04644
:101CA00006E000BF4FF4001802E000BF4FF00068EC
:101CB00011EA080F7CD08C49884253D9904205D054
:101CC000984203D0A04201D0A8422FD14FF0200C5F
:101CD00045E08649A831884203D9834958390968C3
:101CE00005E08249483188428149F8D949689042E3
:101CF000D0D09842CED0A042CCD0C9E7B042CED00E
:101D0000B842CCD04845CAD0C7E75845CAD070457C
:101D1000C8D0DFF8D88108F190084045C2D0DFF87C
:101D2000C88108F148084045C0D1BBE7B04216D091
:101D3000B84214D0484512D0504510D0584509D06B
:101D4000704507D069499031884203D066494831CF
:101D5000884202D14FF4001C01E04FF0006C624851
:101D60004C382AE06149A831884229D9904205D0EF
:101D7000984203D0A04201D0A84202D14FF0200CDB
:101D800019E0B04217D0B84215D0484513D050459D
:101D900011D0584509D0704507D054499031884238
:101DA00003D051494831884203D14FF4001C02E06E
:101DB00095E04FF0006C4C485038C0F800C052E03D
:101DC0004A494831884227D9904205D0984203D0E9
:101DD000A04201D0A84202D14FF0200C18E0B0423E
:101DE00016D0B84214D0484512D0504510D05845AE
:101DF00009D0704507D03D499031884203D03A4917
:101E00004831884202D14FF4001C01E04FF0006CD1
:101E10003748C0F80CC026E0904205D0984203D065
:101E2000A04201D0A84202D14FF0200C18E0B042ED
:101E300016D0B84214D0484512D0504510D058455D
:101E400009D0704507D029499031884203D02649EE
:101E50004831884202D14FF4001C01E04FF0006C81
:101E60002348C0F808C0234C207880070CD5207880
:101E700020F002002070207840F004002070012241
:101E800011461D4801F097F960781C4D80070CD56C
:101E9000607820F002006070607840F004006070AC
:101EA00001221021284601F086F9A07880070CD580
:101EB000A07820F00200A070A07840F00400A0708C
:101EC00001221021284601F076F909F017FF207849
:101ED000400704D50A48016841F001010160BDE8EE
:101EE000F09F0000D80400205864024010600240B7
:101EF0000060024020010020000402400000024077
:101F0000103C0140014800F085BE00006808002038
:101F100001681823CAB2103AB2FBF3F2054B6FF313
:101F20000901032A9B5CC36500D9091D8165084628
:101F3000704700005CE7000810B5014600208B697F
:101F40008A6A4FF0C07453B1B3F5005F15D072B117
:101F5000012A0CD0022A0AD0032A09D104E01AB1BE
:101F6000012A06D0022A03D1C96AC90100D501207D
:101F700010BDC96AA142FAD010BD002AF7D0012ACB
:101F8000F2D0022AF3D0032AF3D010BD30B5046892
:101F9000256825F480252560046863608368402BEC
:101FA000036803D099600068C26030BD9A60006821
:101FB000C16030BD7047000010B5044601F000F963
:101FC000034A04EB840102EB8101486010BD00006C
:101FD000084A0020012000F0DDBF082000F0DABF31
:101FE000102000F0D7BF202000F0D4BF72B6FEE76B
:101FF000DFED110A002109E000EB8102491C92ED9E
:10200000011A89B282ED001A71EE200AB0F890210F
:10201000521E8A42F0DCB0F8901170EE800A00EB9C
:10202000810101ED010AB0F8900100EE100AB8EE4E
:10203000401A80EE810A70470000000010B558B1C8
:10204000084C491E0BD310F8013B5340DBB234F867
:10205000133083EA1222F4E74FF6FF7010BD1046EA
:1020600010BD00007CE8000810B5064C04E000BF7D
:1020700010F8013B5340E25C491E89B2F8D2104689
:1020800010BD00007CE7000870B52A482A4D90F882
:10209000C002022847D0032845D09FED280A85EDCD
:1020A000700A9FED270A00BF264E85ED6F0AD5ED19
:1020B000700AB6F90A0000EE100A1F48B8EEC00A0E
:1020C000283020EE200AFFF793FF1F4CD4ED060ABC
:1020D00030EEC00A84ED060AB6F90C00D5ED6F0AA1
:1020E00000EE100A04F52570B8EEC00A20EE200AB2
:1020F000FFF77EFFD4ED1F0A30EEC00A84ED1F0A01
:10210000D4ED210AB4EEE00AF1EE10FA06D9D4EDCE
:10211000200AB4EEE00AF1EE10FA01DBB0EE600A3C
:1021200084ED1F0A70BD9FED090A85ED700A9FEDD1
:10213000080AB9E784590020EC6000206F12833A46
:102140006F12033AA06A0020EC5C002017B7D13868
:1021500017B7513870B5284D2DED068BB5F9000035
:102160000BF033FD9FED259B53EC192B0BF094FDE9
:102170009FED24AB53EC1A2B0BF0A0FB234C41EC4E
:10218000180BA0690CF07EF853EC182B0BF090FFA5
:102190000BF0A6FAA061B5F902000BF016FD53ECA6
:1021A000192B0BF079FD53EC1A2B0BF087FB41EC4C
:1021B000180BE06F0CF066F853EC182B0BF0C2FA1A
:1021C0000BF08EFA00EE100A84ED1F0AD4ED210AFE
:1021D000B4EEE00AF1EE10FA06D9D4ED200AB4EE1E
:1021E000E00AF1EE10FA01DBB0EE600A84ED1F0A9E
:1021F000BDEC068B70BD0000A06A002066666666B6
:102200006666D63F0000000000A08440EC5C002021
:1022100010B506F061FF1A4C84ED050A06F032FF96
:1022200084ED010A06F046FF84ED1E0A06F012FF57
:1022300084ED1D0AD4ED010A94ED021A1149DFED77
:10224000121A30EEC10A10EE100A884204D931EE9B
:10225000C10A30EE800A0AE010EE100A0B498842EB
:1022600005DDB1EE410A31EEE01A30EE410A94ED9F
:10227000031A31EE000A84ED030AC4ED020A10BD10
:10228000EC5C0020000087C30000B44300008743DB
:1022900070B51C4D1C4CD5ED010A94ED940A04F563
:1022A000097003F055FF94ED060AD4ED900A30EE64
:1022B000600A84ED060AB4F94E02D5ED000A00EE7C
:1022C000100A04F5FE70B8EEC00A03F041FF94ED69
:1022D0001F0AD4ED860A30EE600A84ED1F0AD4EDA1
:1022E000210AB4EEE00AF1EE10FA06D9D4ED200A84
:1022F000B4EEE00AF1EE10FA01DBB0EE600A84ED14
:102300001F0A70BD946A0020EC5C00201FB50268B3
:102310001388ADF8003092788DF802209DF80320E4
:1023200061F3020222F0380110318DF80310827936
:10233000BDF8031062F38911ADF8031002799DF81E
:10234000041062F385018DF804104279BDF807107E
:1023500062F30901ADF807100289BDF8081062F3B5
:102360008C01ADF808104289BDF8091062F34F11D5
:10237000ADF809108189BDF80B0061F30900ADF8D3
:102380000B00684603F010F91FBD1FB502681388E3
:10239000ADF8003092788DF802209DF8032061F3AB
:1023A000020222F038018DF803108279BDF8031083
:1023B00062F38911ADF8031002799DF8041062F3FD
:1023C00085018DF804104279BDF8071062F3090108
:1023D000ADF807100289BDF8081062F38C01ADF862
:1023E00008104289BDF8091062F34F11ADF80910C9
:1023F0008289BDF80C1062F38C01ADF80C10C18914
:10240000BDF80D0061F34F10ADF80D00684603F004
:10241000CBF81FBD1FB502681388ADF80030927865
:102420008DF802209DF8032061F3020242F038018A
:102430008DF803108279BDF8031062F38911ADF8AD
:10244000031002799DF8041062F385018DF80410E1
:102450004279BDF8071062F30901ADF8071002894F
:10246000BDF8081062F38C01ADF808104289BDF880
:10247000091062F34F11ADF80910828DBDF80410F8
:1024800062F38E11ADF80410428DBDF8051062F3B1
:10249000CF11ADF8051000F10C011E22684603F0C3
:1024A000C7F81FBDF0B50DF1140E9EE8F0100160E5
:1024B000027143718471058146818781A0F80EC045
:1024C000F0BD2DE9F0410DF12408044698E86100C3
:1024D0000DF118081E2D98E880502160227163715B
:1024E000A771A4F808C0A4F80AE000D91E25014687
:1024F0002A4604F10C00FEF7E6F86585A685BDE8DE
:10250000F081F0B590F820500468A468012D05D042
:10251000022D03D0416A41F4802153E014F0406F52
:1025200001D1E5004BD5C4F30164022C03D9416A03
:1025300041F4000146E00125A5401D608D684FF47F
:10254000C0739DB1CE6835434E6845EAC60506683E
:1025500003EB0417F5514FF4C275076805EB04153A
:102560000E697E51097D012905D009E00E88CD68EC
:1025700045EA4655EBE701684E5946F480764E51E0
:102580001179D2F805504FF4C67641EA0525016865
:1025900006EB04168D511178D2F801204FF4C47562
:1025A00041EA0221026805EB04155151006803EB72
:1025B0000411425842F0010242500020F0BD416A2D
:1025C00041F4001141620120F0BD704730B590F830
:1025D0002040012C05D0022C03D0416A41F4802117
:1025E0005DE00468002955D02469A40754D04FF455
:1025F000D874056804EB01142D5915F00405956095
:1026000005682D594ED0ED08556005682C5904F029
:102610000204D4604FF4DA74056804EB01142D59F8
:1026200005F00F05156105682D59C5F3072595615E
:1026300005682C59240C54614FF4DC72046802EBD9
:102640000112A4581C700468A458240A5C70046821
:10265000A458240C9C700468A258120EDA704FF42F
:10266000DE72046802EB0112A4581C710468A458BD
:10267000240A5C710468A458240C9C710468A25854
:10268000120EDA71006881B1016941F02001016127
:10269000002030BDE468A8E7416A41F400114162BE
:1026A000012030BD6D0D1560AFE7C16841F020011C
:1026B000C160EDE72DE9F05F05460068002446693A
:1026C000D0F804908768D0F80CB0D0F810A0D0F8FB
:1026D0001880F10748D0F90714D001218160B807AC
:1026E00003D5284600F034FA0CE0780702D54FF401
:1026F000006407E0380702D54FF4805402E0284612
:1027000000F025FAF80516D529684FF48070886026
:10271000B80503D5284600F01DFA0CE0780502D56F
:1027200044F4005407E0380502D544F4804402E044
:10273000284600F00EFAF80316D529684FF48030C9
:102740008860B80303D5284600F006FA0CE0780349
:1027500002D544F4004407E0380302D544F4803441
:1027600002E0284600F0F7F9300707D55FEACB60B2
:1027700004D52968102044F40074C86070074FF035
:10278000080707D55FEA0B7004D52868C76028469C
:1027900000F0AAF9B00706D52868C068800702D003
:1027A000284600F0A3F9700607D55FEACA6004D591
:1027B0002968102044F480640861B00607D55FEAF8
:1027C0000A7004D528680761284600F0BDF9F006B4
:1027D00006D528680069800702D0284600F0B5F9C0
:1027E000B00308D55FEAC96005D5296810204860A4
:1027F000284600F0ABF9F00307D55FEA097004D56D
:1028000028684760284600F0A8F9300446D55FEAFA
:10281000497040D5F00504D55FEAC87001D044F096
:102820000104B00504D55FEA887001D544F00204C4
:10283000700504D55FEA487001D544F00404300502
:1028400029D518F0700F26D008F07000402815D058
:1028500006DC102809D020280AD0302816D10AE03A
:1028600050280ED0602811D10EE044F008040DE08D
:1028700044F010040AE044F0200407E044F040046F
:1028800004E044F0800401E044F480742868816925
:1028900021F070018161296804204860002C05D076
:1028A000686A204368622846FFF78FFEBDE8F09F04
:1028B00070B5040003D094F8200010B104E00120AA
:1028C00070BD204600F082F82068016841F00101E7
:1028D000016000F075FC0546052604E000F070FC80
:1028E000401B0A2811D820684068C007F6D020682D
:1028F000016821F00201016000F062FC05460BE076
:1029000000F05EFC401B0A2806D9606A40F40030E3
:10291000606284F82060D2E7206840688007EFD4C6
:10292000207E0128206801683DD021F080010160EF
:10293000607E01282068016838D021F040010160E4
:10294000A07E01282068016833D021F020010160B9
:10295000E07E0128206801682ED041F0100101605E
:10296000207F01282068016829D021F0080101603A
:10297000607F01282068016824D021F004010160F3
:10298000D4E902010843D4E9041211430843616801
:10299000491E08432168C86100206062012084F854
:1029A0002000002070BD41F08001C0E741F04001EF
:1029B000C5E741F02001CAE721F01001CFE741F05F
:1029C0000801D4E741F00401D9E70000F0B587B071
:1029D000044614216846FDF7EDFE3E4B3E48DFF805
:1029E000F0E01968D4F800C03B4A03250226092705
:1029F00010300024491CF4452AD11960012907D15F
:102A0000016841F000710160006800F000700590FD
:102A1000106840F0080010601068CDE9005600F022
:102A20000800CDE9047069462C48CDE9024500F064
:102A3000BDFA00220521132000F0F0FE132000F063
:102A4000DFFE00220521142000F0E8FE14203BE008
:102A5000DFF88CE0F44539D1D0F800C04CF0806C40
:102A6000C0F800C0D0F800C001290CF0806CCDF88F
:102A700014C0196007D1016841F00071016000685D
:102A800000F000700590106840F0020010601068BF
:102A900002AB00F0020005904FF44050CDE9000673
:102AA00083E8B00069460F4800F080FA0022052153
:102AB0003F2000F0B3FE3F2000F0A2FE00220521DF
:102AC000402000F0ABFE402000F09AFE07B0F0BDC1
:102AD000006400403800002030380240000C024002
:102AE00000680040000402407047000010B5134920
:102AF000134C8AB088420FD107AB6A460021FFF71A
:102B000065FD20B1E088401CE0800AB010BD07A937
:102B10006846FEF721FCF8E70A498842F5D107AB81
:102B20006A460021FFF752FD18B12089401C208120
:102B3000EBE707A96846FEF799FCE6E734040020B6
:102B40007C5800205C040020704770477047704735
:102B50007047704770477047704770472DE9F041E4
:102B60000446876D00F02CFB064694F835000025DE
:102B7000022806D08020606584F834500120BDE82A
:102B8000F0812068016821F0160101602068416928
:102B900021F080014161206C08B9A06C20B120684F
:102BA000016821F0080101602068016821F001013D
:102BB00001600CE000F004FB801B052807D92020F1
:102BC0006065032084F8350084F83450D7E7206826
:102BD0000068C007EED194F85C103F208840B860D0
:102BE000012084F8350084F834500020C7E790F8BD
:102BF0003510022903D0802141650120704705214D
:102C000080F835100068016821F0010101600020A2
:102C1000704700002DE9F84304464FF00009CDF855
:102C2000009063484FF41651A56D0068B0FBF1F7B2
:102C30002E6894F85C10082000FA01F131420FD0A0
:102C400021680A6852070BD50A6822F004020A605C
:102C500094F85C108840A860606D40F001006065E9
:102C600094F85C104FF0010808FA01F0304208D0E7
:102C700021684969090604D5A860606D40F002002A
:102C8000606594F85C1004208840304208D02168C8
:102C90000968890704D5A860606D40F0040060658C
:102CA00094F85C1010208840304218D021680968E0
:102CB000090714D5A86020680168490304D5006895
:102CC000000308D5A16C07E00168C90503D40168B9
:102CD00021F008010160216C09B12046884794F871
:102CE0005C1020208840304231D021680968C90634
:102CF0002DD5A86094F8350005282068016806D015
:102D0000490347D5006800031DD4616C1CE021F025
:102D1000160101602068416921F080014161206C49
:102D200008B9A06C20B12068016821F00801016099
:102D300094F85C103F208840A86084F8358084F8BF
:102D40003490216D1FE0E16B09B120468847606D2A
:102D500000282BD0606DC00714D0052084F8350002
:102D60002068016821F0010101600098401C00907A
:102D7000B84203D820680068C007F6D184F83580CF
:102D800084F83490E16C002910D001B02046BDE8F1
:102D9000F04308470168C905D5D4016821F0100146
:102DA000016084F8358084F83490CCE7BDE8F8837E
:102DB000480000202DE9F041044600F001FA0646E3
:102DC0005CB1022084F83500002584F83450206876
:102DD000016821F0010101600DE00120BDE8F081F2
:102DE00000F0EEF9801B052805D92020606503203E
:102DF00084F83500F2E720680068C007F0D1226847
:102E0000116820480140D4E901031843D4E903368E
:102E10003343184363691843A3691843E3691843AC
:102E2000236A18430843616A042903D1D4E90B13C8
:102E300019430843106020684069666A20F0070162
:102E400030460E43012704280CD1A06A0643E06AED
:102E500040B12046FFF770F820B14020606584F84B
:102E60003570BAE7206846612046FFF751F894F8BC
:102E70005C203F2191408160656584F835700020B9
:102E8000ACE700003F8010F02DE9F0410446866D6C
:102E900090F83400002501280DD0012084F834007A
:102EA00094F835700020012F07D084F834000225F3
:102EB0002846BDE8F0810220FBE7022784F8357040
:102EC00060652046FFF762F894F85C103F20884068
:102ED000B0602068016841F016010160206C20B1EB
:102EE0002068016841F0080101602068016841F034
:102EF00001010160DCE7000070B5044600F060F9F4
:102F00000546601C02D004480078044400F058F9DB
:102F1000401BA042FAD370BD3C00002010B51B4CF2
:102F200010281AD0202821D008282AD0012813D10F
:102F30000AF0B0FA01280FD004F10C01206909F061
:102F4000C3FFE068002807D011494FF080500860A7
:102F5000BFF34F8FBFF36F8F10BD607840F001005B
:102F60006070A07840F00100A07003E0207840F08D
:102F70000100207020790028EED0BDE8104008F054
:102F8000BDBEE07840F00100E07010BD20010020DF
:102F900004ED00E0044910B50A68024202D008605E
:102FA000FFF7BCFF10BD0000143C01402DE9F84FB5
:102FB000DFF8BCA1002201250AF1040B03264FF023
:102FC0000F090BF1040E00BF0B6805FA02F4234051
:102FD000A34270D10F7907F00307012F01D0022F10
:102FE00016D187684FEA420806FA08FC27EA0C0760
:102FF000D1F80CC00CFA08FC4CEA070CC0F808C069
:103000004768A7430C79C4F3001494403C434460E0
:103010000C79E443A4070AD0C4684FEA420C06FACC
:103020000CF7BC438F6807FA0CF72743C7600C798D
:1030300004F00304022C12D1D40800EB840CDCF859
:1030400020405707FF0E09FA07F824EA0804D1F8D0
:10305000108008FA07F848EA0408CCF820800468D1
:103060004FEA420C06FA0CF7BC430F7907F003074E
:1030700007FA0CF7274307604C6814F4403F70D000
:103080003C4C276847F480472760246822F00307F8
:1030900004F480440094384C07EB040CDCF8084836
:1030A00097074FEA177809FA08F7BC43334FB8423D
:1030B00002D1002724E054E0314FB84201D101276A
:1030C0001EE0304FB84201D1022719E02E4FB8421E
:1030D00001D1032714E02D4FB84201D104270FE09E
:1030E0002B4FB84201D105270AE02A4FB84201D13F
:1030F000062705E0284FB84201D1072700E008273E
:1031000007FA08F72743CCF80878DAF80040574662
:10311000D1F804C09C435FEACC3C00D51C433C6022
:10312000DBF800405F46D1F804C09C435FEA8C3C6A
:1031300000D51C433C60DEF800407746D1F804C05F
:103140009C435FEACC2C00D51C433C60084F0C37F5
:103150003C68D1F804C09C435FEA8C2C00D51C432A
:103160003C60521C102AFFF42FAFBDE8F88F00001E
:10317000003C014044380240003001400000024061
:103180000004024000080240000C0240001002400F
:103190000014024000180240001C02400069084070
:1031A00000D001207047426921EA02030A4043EA45
:1031B0000241816170470AB1816170470904FBE7F0
:1031C00001488068704700003C00002070B5040092
:1031D00025D094F83D00002520B984F83C502046C5
:1031E00000F04CFA242084F83D002068016821F0AA
:1031F000010101602068016841F40041016020681C
:10320000016821F40041016000F0B2FC4D4A6168A0
:10321000914201D84C4900E04C49884201D201203A
:1032200070BD4B492368B0FBF1F15E6826F03F06A4
:103230000E435E606368934206D94FF49673594318
:103240004FF47A73B1FBF3F12368491C1E6A26F030
:103250003F06314319626168914210D84900401E0F
:10326000B0FBF1F2521CC2F30B02042A01D204207B
:1032700022E0B0FBF1F0401CC0F30B001CE0A268A0
:10328000F2B301EBC10303EB0116431EB3FBF6F3EC
:103290005B1C43F480431B0549D092B301EBC10290
:1032A00002EB0111401EB0FBF1F0401CC0F30B001B
:1032B00040F4804040F400402168CA694CF6FF7336
:1032C0009A431043C861D4E907100143206802689B
:1032D00022F0C00211430160D4E9030101432068D8
:1032E000826848F2FF339A4311438160D4E90501B3
:1032F00008432168CA6822F0FF021043C86001E059
:103300000EE016E02068016841F0010101602564CB
:10331000202084F83D00256384F83E50002070BDD5
:1033200001EB4106431EB3FBF6F35B1CB3E7012040
:10333000C2E701EB4101401EB0FBF1F0401CC0F3BD
:103340000B00B7E7A086010080841E0000093D0045
:1033500040420F002DE9FF4F83B09A46DDE91197F7
:1033600093460446DDF84080FFF72AFF054694F8AF
:103370003D00202870D11923012271492046009573
:1033800002F006F80028F5D194F83C00012863D03B
:10339000012084F83C0020680168C90703D1016856
:1033A00041F0010101602068016821F400610160C1
:1033B000222084F83D00402084F83E000026266448
:1033C000C4F82480A4F82A90608D20855D48E062CE
:1033D000CDE9007553465A462046049901F0E0FEB7
:1033E00000287CD1208DD0B1012821D0022820686E
:1033F00024D0416980690090208D032869D8012874
:103400002BD0514902283B464FF00002009559D07D
:103410008846204601F0BCFF002860D13CE02068CF
:10342000416981690091016841F40071016077E0B0
:103430002068016821F480610160F0E7016821F4EF
:10344000806101602068016841F4006101602068CA
:1034500041698069009063E06FE02A463946204662
:1034600002F015F898BB20680069616A08704EE0A8
:103470002068016841F40071016020680069616A98
:103480000870606A401C6062218D491E2185618D33
:10349000491E6185216838E02068016821F4806157
:1034A000016020680069616A0870606A401C60629F
:1034B000208D401E2085608D401E60853B46002289
:1034C00041460095204601F063FF00B9D0E706E0D1
:1034D000FFE72A463946204601F0D9FF18B10120FE
:1034E00007B0BDE8F08F20680069616A0870606A03
:1034F000401C6062218D491E2185618D491E6185B8
:1035000021684A69D24352070AD409690170606A86
:10351000401C6062208D401E2085608D401E6085AD
:10352000208D00287FF468AF202084F83D0084F8C7
:103530003E6084F83C600020D2E70220D0E7000023
:10354000020010000000FFFF040001002DE9FF4F02
:1035500083B09A46DDE9119793460446DDF8408032
:10356000FFF72EFE054694F83D0020287FD1192351
:10357000012240492046009501F00AFF002876D13B
:1035800094F83C00012872D0012084F83C002068A7
:103590000168C90703D1016841F001010160206899
:1035A000016821F400610160212084F83D00402081
:1035B00084F83E0000262664C4F82480A4F82A90EB
:1035C000608D20852C48E062CDE9007553465A464F
:1035D0002046049901F062FE70B930E02A4639466F
:1035E000204601F087FF58B1206C042804D12068E0
:1035F000016841F400710160012007B0BDE8F08F5F
:10360000606A216800780861606A401C6062218DF0
:10361000491E89B22185628D521E628522685369D6
:10362000DB435B070BD469B100781061606A401C12
:103630006062208D401E2085608D401E6085208D3B
:103640000028CBD12A463946204601F07BFE0028CF
:10365000CAD154F83D0B016841F40071016020208B
:1036600004F81E09E67766770020C6E7FFE7022028
:10367000C3E70000020010000000FFFFF0B587B0B4
:10368000044614216846FDF795F81D4920688842D4
:1036900033D11C480024016841F004010160016835
:1036A00001F004010591016841F001010160006829
:1036B000122500F0010005904FF40070CDE90005DF
:1036C00002AA0326042782E8D00069460E48FFF7C5
:1036D0006DFCB801CDE9000502AA694682E8D00078
:1036E0000A48FFF763FC07481030016841F4000105
:1036F0000160006800F40000059007B0F0BD000014
:10370000005C0040303802400008024000000240E7
:103710000248816802781144816070473C000020B3
:103720000B4810B5016841F400710160016841F473
:1037300080610160016841F480710160032000F044
:103740008DF80F2000F006F800F03EF8002010BDC4
:10375000003C024010B5014688B000221C2000F059
:103760005DF81C2000F04CF814480024016841F07A
:1037700001010160006805A900F00100069068469B
:1037800000F0D6F900F0F4F90D494000B0FBF1F17A
:103790000C484FF08042491E026040F2E732C0E917
:1037A0000324C0E9011400F01BFE10B1012008B091
:1037B00010BD044800F06EFEF9E7000040380240FA
:1037C00040420F00D00C00200C4882B0016841F448
:1037D00080410160006800F4804000900748001FAD
:1037E000016841F0805101600068002200F08050C3
:1037F00000900F21901E02B000F010B84438024033
:10380000002809DB00F01F020121914040098000DF
:1038100000F1E020C0F8001170470000F0B40E4B3A
:103820001B680C46C3F30223C3F10705042D00D91E
:103830000425191D072901D2002300E0DB1E012603
:1038400006FA05F1491E214099409E40761E164019
:103850003143F0BC05F0EBBC0CED00E0064900F094
:10386000070208684FF6FF03184040EA0220034AA7
:1038700010430860704700000CED00E00000FA05FE
:10388000BFF34F8F05480168054A01F4E061114319
:103890000160BFF34F8F00BFFDE700000CED00E0BB
:1038A0000400FA052DE9F0418AB0040005D094F82F
:1038B000BD032668002520B108E001200AB0BDE85C
:1038C000F08184F8BC53204600F05EF8032084F8B1
:1038D000BD03F06BC00500D42561206805F0BCFA7B
:1038E00004F11001282288466846FCF731FF94E86D
:1038F0000F0005F08FF90226C8BB0021206805F0F3
:10390000DBFA002001270EE0C0EBC00104EB8101CF
:1039100081F83D7001F83C0FC880CD708D60CD609E
:10392000401CC0B24D6161688142EDD8002011E0B9
:10393000C0EBC00104EB810181F8FD5181F8FC016D
:1039400081F8FF51C1F80452C1F80852401CC0B2BE
:10395000C1F8105261688142EAD82822414668467F
:10396000FCF7F6FE94E80F0005F0BCF910B184F8FE
:10397000BD63A2E784F8385084F8BD73206805F071
:10398000A3F900209AE7000010B586B00446142180
:103990006846FCF70FFF2068B0F1A04F27D115480B
:1039A0000021026842F001020260006800F001009C
:1039B00005904FF4C05000900220CDE90101032092
:1039C00003900A20049069460B48FFF7EFFA094874
:1039D000001D016841F08001016006481430016853
:1039E00041F480410160006800F48040059006B019
:1039F00010BD000030380240000002402DE9F047C1
:103A00000E46050065D0DFF81481D8F80000F7B243
:103A100000F00700B04207D288F80070D8F8000024
:103A200000F00700B04254D128683D4C810712D500
:103A3000400703D5206840F4E05020602878000754
:103A400003D5206840F4604020602068A96820F019
:103A5000F000084320602878C0072DD030496868FE
:103A60000839012812D0022813D0032811D0096880
:103A7000890700292DDA216821F003010143216023
:103A8000FFF79EFB814641F2883A0EE00968890300
:103A9000EFE709688901ECE7FFF792FBA0EB09016A
:103AA000514502D90320BDE8F0872068696800F01D
:103AB0000C00B0EB810FEFD1D8F80010404601F0B8
:103AC0000701B14207D90770006800F00700B04253
:103AD00001D00120E7E72878400705D52068E9688C
:103AE00020F4E050084320602878000706D52068BD
:103AF000296920F4604040EAC100206000F058F8D5
:103B00002168084AC1F30311515CC84006490860A6
:103B100006480068FFF71EFE0020C4E7003C024094
:103B20000838024064E700084800002040000020F8
:103B30000F2202600C4A136803F00303436013680A
:103B400003F0F0038360136803F4E053C36012686A
:103B50004FF4E05303EAD20202610448006800F027
:103B6000070008607047000008380240003C02402F
:103B70000448054900680968044AC1F38221515C80
:103B8000C8407047480000200838024074E7000829
:103B90000448054900680968044AC1F34231515C90
:103BA000C8407047480000200838024074E7000809
:103BB000154810B5006810F00C02144813D01449D1
:103BC000042A0FD0082A0ED10F4C241F2268236824
:103BD00002F03F025B0207D52068C0F38810A0FB0B
:103BE000010106E0084610BD2168C1F38811A1FB60
:103BF00000010023FCF7BCFB2168C1F30141491C13
:103C00004900B0FBF1F010BD083802400024F40078
:103C1000001BB7002DE9F84F04006ED02078DFF8C4
:103C20004C93C007A9F104054AD009F104000168CA
:103C3000C1F38101012908D00068C0F38100022886
:103C40000AD1D9F80000400206D52868800337D58C
:103C500060680028E1D033E06068B0F5803F10D0A4
:103C6000B0F5A02F286810D020F480302860286894
:103C700020F4802028606068A8B1FFF7A1FA06460A
:103C80000DE0286840F48030F4E740F4802028609C
:103C9000F7E700BFFFF794FA801B642873D8286801
:103CA0008003F7D50CE0FFF78BFA064605E000BF6E
:103CB000FFF786FA801B6428F0D828688003F7D4C1
:103CC0002078DFF8AC8280074FF0000A3ED5A74885
:103CD000001D016811F00C0F08D00068C0F38100CE
:103CE00002280BD1D9F80000400207D428688007C9
:103CF00016D5E068012800D112E033E1E068B8B1E0
:103D00000120C8F80000FFF75BFA064605E000BF97
:103D1000FFF756FA801B0228C0D828688007F7D51D
:103D20002868216920F0F80040EAC10028600DE011
:103D3000C8F800A0FFF744FA064604E0FFF740FA8F
:103D4000801B02281FD828688007F7D42078000736
:103D500022D5864F87486169703771B101210160B2
:103D6000FFF72EFA064604E0FFF72AFA801B022826
:103D700009D838688007F7D50EE0C0F800A0FFF733
:103D80001FFA064605E082E0FFF71AFA801B0228B8
:103D90007DD838688007F7D42078400768D5DFF8E9
:103DA000CCB100270BF13C0BDBF80000C0000BD4BA
:103DB000DBF8001041F08051CBF80010DBF8000078
:103DC000012700F0805000906B4E3068C00510D481
:103DD000306840F480703060FFF7F2F9009005E041
:103DE000FFF7EEF90099401A022850D83068C00554
:103DF000F6D55E4EA0686C3601280FD005283068D5
:103E000010D020F001003060306820F004003060F5
:103E1000A068B8B1FFF7D4F900900FE0306840F027
:103E20000100F4E740F004003060F7E7FFF7C8F95D
:103E30000099411A41F28830814266D83068800783
:103E4000F4D50EE0FFF7BCF9009007E0FFF7B8F9F2
:103E50000099411A41F28830814256D83068800773
:103E6000F4D42FB1DBF8001021F08051CBF8001012
:103E7000A069C8B33D49091D0968C1F38101022940
:103E80004AD00228504607D0C8F8600000E03CE065
:103E9000FFF796F904463BE04746C8F86000FFF795
:103EA0008FF9064605E000BFFFF78AF9801B02285C
:103EB0002BD828688001F7D4D4E907010843A16A08
:103EC0002E4A490802EB0141626A41EA8211084325
:103ED00094F82C1040EA0161C9F8001001203866FE
:103EE000FFF76EF9044606E03EE000BFFFF768F911
:103EF000001B022809D828688001F7D534E000BFEC
:103F0000FFF75EF9001B022802D90320BDE8F88FF5
:103F100028688001F4D427E00128F7D0D9F8000000
:103F2000E26900F4800191421CD1226A00F03F0155
:103F3000914217D147F6C071626A0140B1EB821F0E
:103F400010D1A26A4FF0FF3300F4403103EB52026C
:103F5000B1EB024F06D194F82C1000F07060B0EB7A
:103F6000016F01D00120D1E70020CFE704380240E3
:103F700000004742800E4742007000400000FFFFF3
:103F800070B5040009D0606A002540B12561656103
:103F9000A56294F8510040B10CE0012070BD60684A
:103FA000B0F5827FF4D0E561F2E784F85050204606
:103FB00000F044F8022084F851002068016821F0E4
:103FC00040010160A088218900F4827001F404415D
:103FD0000843A18901F400610843217C01F002013A
:103FE0000843217D01F001010843218B01F4007198
:103FF0000843217F01F03801084394F8201001F0B4
:1040000080010843218D01F40051084321680860B4
:10401000A069042101EA104094F8241001F0100175
:104020000843216848602068C16921F40061C161CA
:104030006565012084F85100002070BD2DE9F04134
:1040400086B0064614216846FCF7B4FB2C4930685C
:10405000884252D12B480024016841F4805101600C
:10406000006800F48050059026481438016841F03B
:10407000020101600068694600F0020005903820E6
:1040800000900220CDE90104032003900520049054
:104090001D48FEF78BFF1E4D1C484FF0C06728607F
:1040A000C5E901744FF48068C5E903486C61781272
:1040B000AC61C5E9074028466C62FEF77BFE08B19B
:1040C000FDF794FFF564AE63114D1048603518306C
:1040D000E5E802074020A5E81101C00245F81449AF
:1040E000AC61C5E907400A486C626030FEF762FEC9
:1040F00008B1FDF77BFFB564AE6306B0BDE8F081A3
:104100000030014044380240000402404064024054
:10411000300500202DE9F84F044690F850000027A4
:104120000A9E1D4692468B464FF0010901280ED08B
:10413000012084F85000FFF743F8804694F85100BE
:10414000616801280CD0B1F5827F07D102E002201E
:10415000BDE8F88FA16809B9042801D00227C2E0A0
:10416000BBF1000F27D0BAF1000F24D01DB394F893
:104170005100042802D0052084F851000020606519
:10418000C4F838A0E587A587C4F830B0E586A586D1
:104190002064606420680168490603D4016841F026
:1041A00040010160E068B0F5006F606805D0E8B3D9
:1041B000012D46D07FE0012795E008B1012D39D1CE
:1041C000206B21680088C860206B801C2063E08E13
:1041D000401EE0862EE02068816889070FD5E18EB9
:1041E00069B1B9F1010F0AD1216B0988C160206B57
:1041F000801C2063E08E401EE0864FF0000920689E
:104200008168C9070CD0E18F51B1C068A16B0880EB
:10421000A06B801CA063E08F401EE0874FF0010977
:10422000FEF7CEFFA0EB0800B04200E009E001D3AA
:10423000701C50D1E08E0028CDD1E08F0028CAD16B
:104240003FE0206B216800780873206B401C2063DE
:10425000E08E401EE0862EE02068816889070FD539
:10426000E18E69B1B9F1010F0AD1216B09780173AF
:10427000206B401C2063E08E401EE0864FF000095A
:1042800020688168C9070CD0E18F51B1C068A16B6B
:104290000870A06B401CA063E08F401EE0874FF0C9
:1042A0000109FEF78DFFA0EB0800B04202D3701C9D
:1042B00001D010E07EB1E08E0028CDD1E08F002843
:1042C000CAD142463146204603F098FA28B1012768
:1042D0002020606507E0032705E0A06818B9206882
:1042E000C16880680090012084F85100002084F8A3
:1042F000500038462CE77047704710B590F83C20C6
:10430000012A22D0012280F83C20CA688C6822F45D
:10431000407222434C6822F4806222430C6822F4EB
:10432000006222430C6922F4805222434C6922F439
:1043300000522243C969002322F480420A430168E3
:104340004A6480F83C30002010BD022010BD0000FF
:1043500070B590F83C20012A32D0012480F83C400E
:10436000022280F83D2003685A689D6822F070069A
:104370000A6832435A60134B02689A4214D0B2F171
:10438000804F11D0104B9A420ED0104B9A420BD056
:104390000F4B9A4208D00F4B9A4205D00E4B9A42CF
:1043A00002D00E4B9A4204D1496825F0800319438C
:1043B000916080F83D40002180F83C10084670BDB7
:1043C000022070BD000001400004004000080040D1
:1043D000000C004000040140004001400018004073
:1043E00010B5040003D094F83D0010B107E001209F
:1043F00010BD002084F83C00204600F01FF8022089
:1044000084F83D00211D206803F0DEFC012084F8C3
:10441000460084F83E0084F83F0084F8400084F8A9
:10442000410084F8420084F8430084F8440084F892
:10443000450084F83D00002010BD000008B500686C
:104440001149884212D11148016841F00801016008
:104450000068002200F00800009005213220FFF7DC
:10446000DDF9BDE808403220FFF7CAB908498842A3
:1044700009D10648001D016841F40031016000685F
:1044800000F40030009008BD000C004040380240AD
:104490000044014090F83D10012901D001207047EF
:1044A000022180F83D100168CA6842F00102CA602A
:1044B00000681149884214D0B0F1804F11D00F49E3
:1044C00088420ED00E4988420BD00E49884208D04F
:1044D0000D49884205D00D49884202D00C498842D6
:1044E00004D1816801F00701062903D0016841F079
:1044F00001010160002070470000014000040040FD
:1045000000080040000C0040000401400040014051
:104510000018004070B5044690F83C0000250128C2
:1045200017D0012684F83C60022084F83D00206802
:10453000826822F0770222F47F4282600868502865
:1045400038D00DDC20284FD005DC90B3102811D1D5
:104550004AE0022070BD302846D040280AD13BE016
:1045600060282FD070280DD0B0F5805F03D0B0F553
:10457000005F12D0012584F83D60002084F83C00E3
:10458000284670BDCB68D1E90121206803F08DFC7D
:104590002068816841F0770109E0CB68D1E9012109
:1045A000206803F082FC2068816841F480418160CA
:1045B000E1E719E0CA684968206803F04BFD502123
:1045C000206806E0CA684968206803F054FD60214D
:1045D000206803F074FCCEE7CA684968206803F0DD
:1045E00039FD40212068F4E7226801461046F0E7D3
:1045F0002DE9F0410D46040003D094F83D0018B1B8
:1046000008E00120BDE8F081002084F83C0020464D
:1046100000F040F8022084F83D002068816844F2F0
:10462000070291438160211D206803F0CDFB2268C1
:1046300090689169166A2B68AF69034340F20330B2
:10464000814341EA0721A868EF6908434FF6FC411E
:104650008843E96840EA0720014328692F6A00017E
:1046600040EA0730084369686D6926F0AA0646EA01
:104670000515294393602268906154F8460B016246
:10468000012004F81F09E0752076E0762077A075F8
:104690000020B7E770B586B0044614216846FCF7E1
:1046A00089F81C492068884231D11B4800240168E0
:1046B00041F002010160006800F002000590164818
:1046C0001438016841F480710160016801F480715F
:1046D0000591016841F0040101600068022500F0C5
:1046E0000400059080200090CDE901540326CDE917
:1046F000034669460948FEF759FCC0200090CDE901
:104700000154CDE9034669460548FEF74FFC06B063
:1047100070BD000000040140443802400020024007
:1047200000080240704770B50446006801694FF008
:104730000005C943890715D4C168C943890711D445
:10474000E91E0161012020772068806980072046EA
:1047500002D0FFF7E7FF04E000F008F9204600F080
:10476000BBF9257720680169C943490717D4C16897
:10477000C943490713D46FF0040101610220207777
:104780002068806910F4407F204602D0FFF7CAFFFE
:1047900004E000F0EBF8204600F09EF92577206851
:1047A0000169C943090716D4C168C943090712D46E
:1047B0006FF008010161042020772068C06980073C
:1047C000204602D0FFF7AEFF04E000F0CFF820460D
:1047D00000F082F9257720680169C943C90617D41A
:1047E000C168C943C90613D46FF0100101610820E4
:1047F00020772068C06910F4407F204602D0FFF780
:1048000091FF04E000F0B2F8204600F065F925774A
:1048100020680169C943C90708D1C168C943C907EC
:1048200004D1891E0161204600F0FAF9206801696F
:10483000C943090609D4C168C943090605D46FF004
:10484000800101612046FFF756FD20680169C943D8
:10485000490609D4C168C943490605D46FF040012F
:104860000161204600F0E3F920680169C943890627
:104870000BD4C168C943890607D46FF020010161D8
:104880002046BDE87040FFF737BD70BD70B586B0FB
:10489000044614216846FBF78DFF2C4A216800244A
:1048A0002B480225914224D1016841F001010160A9
:1048B000016801F001010591016841F010010160FA
:1048C0000068012600F01000059050150090CDE919
:1048D0000154CDE9034669461E48FEF767FB4FF4D5
:1048E000C4400090CDE90154CDE9034669461A4819
:1048F00012E01A4A914213D1016841F008010160A7
:104900000068694600F00800059010140090CDE999
:1049100001541348CDE90345FEF748FB06B070BDCE
:10492000104A9142FAD1016841F02001016000680B
:10493000694600F02000059040200090CDE9015428
:104940000320CDE903400848E6E7000000000140ED
:1049500030380240000002400010024000080040D1
:10496000000C02400044014000140240704770B542
:10497000044690F83C0000260D4601280FD0012087
:1049800084F83C006AB1042A1DD0082A2FD00C2AD2
:104990003FD00126002084F83C00304670BD022044
:1049A00070BD206803F094FA2068816941F0080125
:1049B00081612068816921F0040181612068816939
:1049C0002A69114311E0206803F0B2FA2068816976
:1049D00041F4006181612068816921F48061816115
:1049E000206881692A6941EA02218161D2E7206851
:1049F00003F0D4FA2068C16941F00801C161206860
:104A0000C16921F00401C1612068C1692A691143AB
:104A100011E0206803F0F6FA2068C16941F40061F2
:104A2000C1612068C16921F48061C1612068C169E8
:104A30002A6941EA0221C161ACE710B5040003D044
:104A400094F83D0010B107E0012010BD002084F86B
:104A50003C00204600F01EF8022084F83D00211D95
:104A6000206803F0B1F9012084F8460084F83E0084
:104A700084F83F0084F8400084F8410084F8420044
:104A800084F8430084F8440084F8450084F83D002D
:104A9000002010BD08B500680C49884208D10C48B8
:104AA000016841F001010160006800F001000BE0C5
:104AB0000849884209D10648001F016841F00401F5
:104AC0000160006800F00400009008BD0000014093
:104AD00044380240000800407047000010B504460A
:104AE000022249B104290ED0082913D094F84100BC
:104AF000012816D0012010BD94F83E000128F9D1FC
:104B000084F83E200FE094F83F000128F2D184F8A9
:104B10003F2008E094F840000128EBD184F84020C1
:104B200001E084F841200122206803F0B1F9164920
:104B30002068164A884201D0904203D1436C43F466
:104B4000004343642068884213D0B0F1804F10D0F6
:104B50000F4988420DD00F4988420AD00E49884239
:104B600007D0904205D00D49884202D00C498842B6
:104B700004D1816801F00701062903D0016841F0E2
:104B800001010160002010BD00000140000401404F
:104B90000004004000080040000C004000400140BC
:104BA0000018004030B504460D460068002203F0AE
:104BB0006FF9194B41F2111120688A10984202D006
:104BC000164B984209D1036A0B4206D1036A13427D
:104BD00003D1436C23F4004343642068036A0B420F
:104BE00006D1016A114203D1016821F0010101607F
:104BF00001203DB1042D08D0082D09D084F84100D2
:104C0000002030BD84F83E00FAE784F83F00F7E763
:104C100084F84000F4E70000000001400004014077
:104C20000068B0F1804F01D1FEF772BD7047704748
:104C300070477047F8B5016804460868CA684B6950
:104C400010F00F0F4FF0000559D003F0010602F4E9
:104C50009077374365D0C10705D0D10503D5216CC6
:104C600041F001012164410705D5D90703D0216C2A
:104C700041F002012164810705D5D90703D0216CD9
:104C800041F004012164010707D502F020013143FE
:104C900003D0216C41F008012164216C00293AD035
:104CA000800604D5900602D5204603F0B5FE2068A4
:104CB0004069216CC0F38010090700D460B320461E
:104CC00003F031FE20684069400621D52068143089
:104CD00050E8001F21F0400140E80012002AF5D101
:104CE000A06BA8B16C490165A06BFDF780FF00289F
:104CF00011D0A06B016D01B0BDE8F04008478306FC
:104D00000FD593060DD52046BDE8F84003F084BECC
:104D10002046FFF78EFFF8BD2046FFF78AFF256487
:104D2000F8BD266B2023012E79D1C60677D5D6068D
:104D300075D50868486800904869400640D5A16B61
:104D4000086840680004000CEAD0A28D8242E7D9CE
:104D5000E085C869B0F5807F2DD020680C3050E820
:104D6000001F21F4807140E80012002AF5D120686C
:104D7000143050E8001F21F0010140E80012002A21
:104D8000F5D12068143050E8001F21F0400140E8C0
:104D90000012002AF5D184F83E30256320680C30DB
:104DA00050E8001F21F0100140E80012002AF5D160
:104DB000A06BFDF7D3FEA08DE18D401A81B229E0F2
:104DC000A08DE18D401A81B2E08D0028A8D0002985
:104DD000A6D020680C3050E8002F22F4907240E8F2
:104DE0000026002EF5D12068143050E8002F22F064
:104DF000010240E80026002EF5D184F83E302563FC
:104E000020680C3050E8002F22F0100240E8002308
:104E1000002BF5D12046FFF70BFFF8BDFFE7050695
:104E20002BD5150629D594F83D002128F5D1A06889
:104E3000B0F5805F01D12069B0B1206A411C2162C8
:104E4000216800784860E08C401E0004000CE0847B
:104E5000E3D12068C16821F08001C1602068C16889
:104E600041F04001C160D8E7206A0088C0F3080023
:104E70004860206A801C2062E5E74006CDD55006D8
:104E8000CBD5CA68204622F04002CA6084F83D3083
:104E900000F06BF9C1E700008188000870B50400DC
:104EA00004D094F83D00002510B106E0012070BD4B
:104EB00084F83C50204600F023F8242084F83D007C
:104EC0002068C16821F40051C160204603F004FE4F
:104ED0002068016921F4904101612068416921F055
:104EE0002A0141612068C16841F40051C160256414
:104EF000202084F83D0084F83E00002070BD0000B2
:104F0000F0B587B0064614216846FBF753FC5949B3
:104F1000574A3768002457481439022303254FF0B5
:104F2000070C97421DD1026842F01002026000682F
:104F300000F010000590086840F002000860086862
:104F4000694600F002000590C0208DE839104A48FB
:104F5000FEF72CF8002205212520FEF75FFC252016
:104F600022E0444ADFF814E1121F774520D110688F
:104F700040F400301060106800F4003005900868BC
:104F800040F0080008600868694600F008000590D5
:104F900060208DE839103A48FEF708F80022052114
:104FA0002620FEF73BFC2620FEF72AFC07B0F0BDCA
:104FB000DFF8D0E077451ED1106840F48020106003
:104FC000106800F480200590086840F00400086034
:104FD0000868694600F0040005904FF440608DE8D1
:104FE00039102948FDF7E2FF002205212720FEF7AE
:104FF00015FC2720D8E7254A9742D7D1026842F00E
:1050000020020260006800F020000590086840F06F
:10501000400008600868694600F0400005904FF4C1
:1050200084408DE83900082004901948FDF7BEFF40
:10503000194D184828604FF0206068604020C5E98D
:1050400002040001C5E90404AC61EC612C6228464D
:105050006C62FDF7AFFE08B1FCF7C8FF7563002274
:1050600005214720AE63FEF7D9FB47209CE70000EF
:105070000010014044380240000402400044004057
:10508000000C0240004800400008024000140140AB
:1050900000180240A0640240680800207047000029
:1050A00070B5044690F83D00202836D191B38AB3FC
:1050B00094F83C00012830D0012084F83C002162A3
:1050C000A284E28400252564212084F83D00636BDE
:1050D0001348D863636B13481864636B1248D86431
:1050E000606B134605652668606B321DFDF7CCFECC
:1050F00021686FF04000086084F83C50206814304C
:1051000050E8001F41F0800140E80012002AF5D16C
:10511000002070BDFFE70120FBE70220F9E7000057
:10512000DB8800081D8900089188000890F83D3050
:10513000202B18D1A9B1A2B190F83C30012B12D08C
:1051400001628284C28400210164212280F83D2012
:1051500080F83C100068C16841F08001C160002007
:105160007047012070470220704770477047FEE784
:1051700001684A69D24352050FD46FF480624A61D4
:10518000002140F8301F202242738173026942F0EF
:105190000402026101730120704700207047000083
:1051A0002DE9F84F0446006889460B9D0168984632
:1051B000174641F4806101602068016841F4807104
:1051C000016000954FF0011B0022594620460A9BC2
:1051D00000F0DEF84FF4007A40B120680068C005A6
:1051E00001D5C4F840A00320BDE8F88F216809F07C
:1051F000FE0008612B46284920460A9A00F0FCF878
:10520000F0BB20684169806900902A4620460A99CF
:1052100000F070F940B1206C04283AD12068016890
:1052200041F40071016034E0FEB2B8F1010F09D021
:105230002168380A08612A4620460A9900F05AF97E
:105240000028E8D1206806612A4620460A9900F025
:1052500051F90028DFD12068016841F480710160B4
:1052600000950022594620460A9B00F091F800283C
:10527000B3D1216809F0FF0040F00100086100E0AF
:1052800007E02B46044920460A9A00F0B5F80028AA
:10529000AAD00120A8E70000020001002DE9F84390
:1052A000044600680D46DDE90897016898461646F1
:1052B00041F4807101604B4600224FF001112046FD
:1052C000009700F065F848B120680068C00502D575
:1052D0004FF4007020640320BDE8F883216805F0D6
:1052E000FE0008613B464A461549204600F084F816
:1052F00088B920684169806900903A46494620464D
:1053000000F0F8F848B1206C042804D12068016846
:1053100041F4007101600120DEE7F5B2B8F1010F40
:1053200009D02168300A08613A464946204600F013
:10533000E1F80028E7D1206805610020CCE70000F3
:105340000200010070B516460D4604460DE02046E9
:10535000FFF70EFF08B1012070BD681C05D0FDF7F6
:105360002FFF801BA84207D835B120684069C04391
:105370004007ECD4002070BD002044F8300F2021FD
:105380006173A073216941F0200121612073E2E77C
:105390002DE9F0471E4690460D460446C1F30747E7
:1053A000DDF8209008E0701C06D0FDF709FFA0EBA7
:1053B0000900B0420FD876B12068012F18D080695B
:1053C00025EA00000004000C14D000214145EAD079
:1053D0000020BDE8F087002044F8300F20216173E1
:1053E000A073216941F02001216120730120F0E7C1
:1053F0004069E5E70121E9E72DE9F0479A46914642
:105400000E46044600254FF02008C1F3074725E06B
:1054100020684069C043400514D42068016841F405
:105420000071016021686FF480604861256384F831
:105430003D8084F83E50206C40F00400206484F8E5
:105440003C501FE0B9F1FF3F08D0FDF7B9FEA0EBDB
:105450000A0149450CD8B9F1000F09D02068012F85
:1054600013D0806926EA00000004000C0BD0CFE7BF
:1054700044F8305F84F80D80A573206940F0200067
:10548000206125730120BDE8F0874069EAE72DE936
:10549000F041002590460E460446202717E040695B
:1054A000C043C0060CD454F8301B6FF010004861A4
:1054B00044F810596777A577206A2062257717E0AE
:1054C000FDF77EFEA0EB0800B04208D83EB1206890
:1054D0004169C9434906E2D40020BDE8F08144F89F
:1054E000305F6773A573206940F020002061257349
:1054F0000120F2E770B516460D4604460DE0204641
:10550000FFF736FE08B1012070BD681C05D0FDF71D
:1055100057FE801BA84207D835B120684069C043B8
:105520000006ECD4002070BD002044F8300F20218C
:105530006173A073216941F0200121612073E2E7CA
:105540000148007E704700005F4B00200148008941
:10555000704700007A4B0020034903481B31808AC2
:10556000C989401A00B270475F4B00200348007899
:105570000A2801D901207047002070475F4B0020A6
:105580000148C08A704700005F4B00200248807EBF
:10559000C0F38000704700005F4B00200148007896
:1055A00070470000B600002010B59AB00446A52050
:1055B0008DF844001520ADF8450000208DF8470017
:1055C000119800909DF848008DF804000521684668
:1055D000FBF7CCFC40F20130ADF8490040F201107D
:1055E000ADF84B00114821460278ADF84D2002F588
:1055F0008072ADF84F200F220DF15100FBF763F8D8
:1056000017220DF149010DF10500FBF75CF81E2191
:105610006846FBF797FC1E20ADF84000034869463A
:105620003F3800F00FFE1AB010BD00005F4B0020A5
:1056300070B5A0B00446A5208DF844003320ADF825
:10564000450000208DF84700119800909DF8480013
:105650000E468DF80400154605216846FBF786FCCA
:1056600040F20130ADF849004FF48870ADF84B00BE
:1056700013480F2221460378ADF84D3003F58073AF
:10568000ADF84F300DF15100FBF71DF82A463146B9
:1056900018A8FBF718F835220DF149010DF10500A6
:1056A000FBF711F83C216846FBF74CFC3C20ADF8B9
:1056B0004000034869463F3800F0C4FD20B070BD8B
:1056C0005F4B002010B5040003D0012C01D0002056
:1056D00010BDFA210D4803F05BF904210B4803F0DB
:1056E00057F90821094803F053F92146074803F008
:1056F0004FF9A41DE043401CC1B2044803F048F92F
:105700003220FDF7F9FB012010BD000058070020F2
:1057100010B500F035FC0120FFF7D4FF142000F095
:105720005BF8142000F02EF8012000F083F8BDE8AB
:1057300010400020AFF3008010B5040003D0012C0E
:1057400001D0002010BD80210D4803F021F9062171
:105750000B4803F01DF90521094803F019F921460A
:10576000074803F015F98B34E043401CC1B20448EC
:1057700003F00EF93220FDF7BFFB012010BD000041
:105780005807002010B5040007D0052C05D00A2CBE
:1057900003D0142C01D0002010BDFA210D4803F0D5
:1057A000F7F804210B4803F0F3F80A21094803F045
:1057B000EFF82146074803F0EBF804F58474E04362
:1057C000401CC1B2034803F0E3F83220FDF794FB1C
:1057D000012010BD5807002010B504461E280BD02C
:1057E00004DC052C08D00A2C04D105E0322C03D0AF
:1057F000502C01D0002010BDFA210D4803F0C8F84C
:1058000004210B4803F0C4F80921094803F0C0F84B
:105810002146074803F0BCF8E41DE043401CC1B238
:10582000034803F0B5F83220FDF766FB012010BDF8
:105830005807002010B50446012803D0022C01D0DF
:10584000002010BDFA210E4803F0A2F804210C48F4
:1058500003F09EF80C210A4803F09AF82146084804
:1058600003F096F804F20914E043401CC1B2044866
:1058700003F08EF83220FDF73FFB012010BD000041
:10588000580700200F4810B50D49016007214160FD
:1058900000214FF400328160C0E90312D20042615E
:1058A0000176012242768176C17601774277FCF754
:1058B000FFFF002803D0BDE81040FCF797BB10BDE8
:1058C00000640040340400200F4810B50D49016009
:1058D0000721416000214FF400328160C0E90312CA
:1058E000D20042610176012242768176C17601774B
:1058F0004277FCF7DDFF002803D0BDE81040FCF73D
:1059000075BB10BD006800405C040020114808B55C
:10591000016841F4800101600068002200F4800009
:10592000009005213A20FDF779FF3A20FDF768FF46
:10593000002205213B20FDF771FF3B20FDF760FFB2
:10594000002205214520FDF769FFBDE808404520FC
:10595000FDF756BF3038024010B5E2B01C224D4969
:105960006846FAF7F5FE0021684606F06CFB4A4CE3
:1059700048491C2220601C3107A8FAF7E9FE0021E3
:1059800007A806F060FB434960601C2238310EA86E
:10599000FAF7DEFE00210EA806F055FB3D49A06097
:1059A0001C22543115A8FAF7D3FE002115A806F0E1
:1059B0004AFB3849E0601C2270311CA8FAF7C8FE87
:1059C00000211CA806F03FFB324920611C228C31CB
:1059D00023A8FAF7BDFE002123A806F034FB2D49C9
:1059E00060611C22A8312AA8FAF7B2FE00212AA879
:1059F00006F029FB2749A0611C22C43131A8FAF71F
:105A0000A7FE002131A806F01EFB2249E0611C22FE
:105A1000E03138A8FAF79CFE002138A806F013FB05
:105A20001C4920621C22FC313FA8FAF791FE00219C
:105A30003FA806F008FB60621C22184946A8FAF746
:105A400087FE002146A806F0FEFA1449A0621C2237
:105A50001C314DA8FAF77CFE00214DA806F0F3FAA0
:105A60000E49E0621C22383154A8FAF771FE002179
:105A700054A806F0E8FA094920631C2254315BA8B7
:105A8000FAF766FE00215BA806F0DDFA606362B0FB
:105A900010BD0000D4E5000800000020ECE600087E
:105AA0002DE9F04F87B014216846FAF783FE6E485F
:105AB0000024016841F002010160016801F0020167
:105AC0000591016841F040010160016801F0400169
:105AD0000591016841F001010160016801F00101D7
